:1000000053C000001BC500000AC5000068C0000006
:1000100066C0000064C0000062C0000060C0000054
:100020005EC000005CC000005AC0000075C0000047
:1000300056C0000054C0000052C0000050C0000074
:100040004EC000004CC000004AC0000048C0000084
:1000500046C00000EA0454045404540454045404F4
:100060005404540454045404D30454045404540451
:10007000540454045404540454045404C404540450
:1000800054045404540454045404540454045404B0
:10009000AE04EA04540454045404540454045404B0
:1000A000540454049404820411241FBECFE5D8E004
:1000B000DEBFCDBF10E0A0E6B0E0EAE3FDE002C0A5
:1000C00005900D92A236B107D9F720E0A2E6B0E084
:1000D00001C01D92A736B207E1F7BBD32CC690CF63
:1000E00085E083BF1092630089B7816089BF08955E
:1000F00080916300089590916300981B892F089563
:1001000082B7089592B7981B892F089522B792B7A6
:10011000921B9817E0F308951F920F920FB60F925B
:1001200011248F93809163008F5F809363008F9180
:100130000F900FBE0F901F901895EF92FF920F93A4
:100140001F93CF93DF93C0E0D0E0EE24EA94FE2C1F
:10015000CE01CCD58C01CE0102962496C7D58095D0
:1001600090958017910759F0CC30D10589F7C701D8
:10017000DF91CF911F910F91FF90EF9008958E1511
:100180009F0590F77C01F0CFCF92DF92EF92FF9224
:100190000F931F93CF93DF937C016C01C094D09495
:1001A000C0E0D0E08E010E5F1F4FB701CE01A3D596
:1001B0002496B601C8019FD5CC30D10599F7DF91BF
:1001C000CF911F910F91FF90EF90DF90CF90089506
:1001D000CF93DF93D82FC92FB0DF8F3F2FEF920738
:1001E00049F0009719F4DF91CF9108950197DF91BD
:1001F000CF91CACF8D2F9C2FF4CF20B39091660062
:100200002095292780916100822380958093610049
:100210009091600092239827909360008223892315
:1002200090916600982790936600209166009091C7
:1002300065008223892B809365008091660081E3AD
:10024000809362000895F8949091650089239091BD
:10025000650098279093650078940895BF92CF9297
:10026000DF92EF92FF920F931F93CF93DF9300D013
:1002700000D0CDB7DEB797B3906B97BBC498C79843
:1002800082FBBB24B0F883708065E82E80E2F82EF4
:100290008E010B5F1F4F9CEAC92E23E5D22E87E209
:1002A00035DFC49A87E232DFC49883EC2FDFBEB813
:1002B000EDB8C982DA821B821C82FE0131969CEA6B
:1002C0009FB9779BFECF9FB19193E017F10711F093
:1002D0009081F6CF8B81833599F01DB8FA94F11097
:1002E000DECF8F2D0F900F900F900F90DF91CF9159
:1002F0001F910F91FF90EF90DF90CF90BF900895E6
:10030000FF24F394EECF87B38F7487BB88B38F74C9
:1003100088BB1DB881E00895662389F0FC01615017
:10032000262F30E02F5F3F4F280F391F80818FB974
:10033000779BFECF8FB18193E217F307B9F708954A
:100340002F923F924F925F926F927F928F929F92E5
:10035000AF92BF92CF92DF92EF92FF920F931F93D3
:10036000CF93DF93CDB7DEB760970FB6F894DEBFBB
:100370000FBECDBF49015A0127013801EF28E02AFD
:10038000E12A09F489C0960140E050E02D873E87BC
:100390004F87588B1B01DD24DA94AE014B5F5F4F12
:1003A0007A01EDE4CE2ED501C40171E1B695A79591
:1003B000979587957A95D1F74D2D50E060E070E0E4
:1003C00084179507A607B70791F0D82EC9821A821D
:1003D0008B831C82FE0131968DE48FB9779BFECF13
:1003E0008FB18193EE15FF0511F08081F6CF882D36
:1003F0008170880F880F880F80648983A50194011C
:1004000099E056954795379527959A95D1F72D837D
:100410003E834F8358872A83A501940156954795BB
:100420003795279529873A874B875C872B83F1017E
:1004300094919C838E010F5F1F4FF8018FB9779BBA
:10044000FECF8FB18193EE15FF0511F08081F6CFBD
:10045000FFEF8F1A9F0AAF0ABF0AC501B4012D85AD
:100460003E854F8558891AD4672B682B692B69F113
:1004700021E0421651046104710439F181E0481A07
:100480005108610871089FEF291A390A4114510473
:100490006104710409F087CF60960FB6F894DEBF4F
:1004A0000FBECDBFDF91CF911F910F91FF90EF90C5
:1004B000DF90CF90BF90AF909F908F907F906F9084
:1004C0005F904F903F902F9008953CE439834D8189
:1004D0004A8359855B831C828CE4F8018FB9779B32
:1004E000FECF8FB18193EE15FF0511F08081F6CF1D
:1004F00087E20CDEC3CF4F925F926F927F928F9212
:100500009F92AF92BF92EF92FF920F931F93CF9360
:10051000DF9300D000D0CDB7DEB749015A01E11416
:10052000F1040105110509F464C0FB016FEFAE0190
:100530004B5F5F4F2DE42401350171E176946794A0
:10054000579447947A95D1F7862F90E0A0E0B0E0D9
:10055000481659066A067B0691F0642D29831A8293
:100560004B821C82DE0111968DE48FB9779BFECF02
:100570008FB18D93A417B50711F08C91F6CF882D0C
:100580008170880F880F880F80628983240135016C
:1005900099E076946794579447949A95D1F74A8254
:1005A0002401350176946794579447944B821C82BA
:1005B000DE0111968FB9779BFECF8FB18D93A41773
:1005C000B50711F08C91F6CF84913C81831325C03F
:1005D0008FEF881A980AA80AB80A81E0E81AF10889
:1005E000010911093196E114F1040105110509F021
:1005F000A2CF81E00F900F900F900F90DF91CF91DD
:100600001F910F91FF90EF90BF90AF909F908F90B0
:100610007F906F905F904F90089580E0EBCF2F9286
:100620003F924F925F926F927F928F929F92AF9282
:10063000BF92CF92DF92EF92FF920F931F93CF93CF
:10064000DF93CDB7DEB761970FB6F894DEBF0FBE6C
:10065000CDBF47015801DD86CC86EF28E02AE12A8C
:1006600009F467C07E836D8369017A018FEFC81A30
:10067000D80AE80AF80A29013A01DE0115961D0197
:10068000AC85BD85CD01A0E0B0E08E879F87A88BAB
:10069000B98BBB27A72D962D852D8F839887A9878A
:1006A000BA878A834B864B82ED81FE8184918C834D
:1006B0008C859D85029708F46CC0A1ECA9838E01FE
:1006C0000F5F1F4FF80181EC8FB9779BFECF8FB181
:1006D0008193E215F30511F08081F6CFC701B601D1
:1006E0002E853F8548895989D9D2672B682B692B7C
:1006F000C9F1B1E08B169104A104B10499F181E034
:10070000881A9108A108B1089FEF491A590A690A85
:10071000790AAD81BE811196BE83AD83BFEFCB1A3E
:10072000DB0AEB0AFB0A81149104A104B10409F06D
:10073000B0CF61960FB6F894DEBF0FBECDBFDF918C
:10074000CF911F910F91FF90EF90DF90CF90BF90CE
:10075000AF909F908F907F906F905F904F903F9061
:100760002F900895E2ECE983FF81FA838B858C7FDB
:100770008B831C8282ECF8018FB9779BFECF8FB1FF
:100780008193E215F30511F08081F6CF8EE4BEDC93
:10079000B6CF90EC9983FE01319680EC8FB9779BB0
:1007A000FECF8FB18193E215F30581F38081F6CFFF
:1007B0008F929F92AF92BF92EF92FF920F931F93EF
:1007C000CF93DF9300D000D0CDB7DEB749015A01F7
:1007D000E114F1040105110551F1FB01AE014B5F7C
:1007E0005F4F20EA29839A828B821C82DE01119658
:1007F00080EA8FB9779BFECF8FB18D93A417B50791
:1008000011F08C91F6CF84919C81891320C08FEFD9
:10081000881A980AA80AB80A81E0E81AF1080109BA
:1008200011093196E114F10401051105D9F681E0B1
:100830000F900F900F900F90DF91CF911F910F911C
:10084000FF90EF90BF90AF909F908F90089580E0C1
:10085000EFCF80E381BB88E084BB81E08ABB8CE082
:1008600082BB3EDC85B78F78806285BF49DCF82E7D
:100870003FDC082F3DDC182F7894C0E0E12CD0E05D
:10088000DD24D394CC24C394802F35DC8930F8F454
:100890008F2D38DC8F3410F5DD2339F1D89A4C2FA9
:1008A00050E04A32510540F1C43109F470C008F0FB
:1008B0009EC0C111ADC041DCCAE0F894812F1BDCA1
:1008C000853FF0F47894802F16DC893008F310DC33
:1008D000082FEC248F2D16DC8F34F0F211DCF82E6B
:1008E0008CDCDD2311F0D150C9F6D898D0E04C2F24
:1008F00050E04A325105C0F6FA01E65DFF4FF0C103
:10090000CEE1C2CF82B38F7EEE2009F47CC090E0AE
:10091000892B82BB959885B3877F9E2D990F990F60
:10092000990F892B85BBC9CF42B32E2D30E0C90169
:1009300082959295907F9827807F9827942F9F7E0D
:10094000892B82BB959885B3220F331F220F331F4B
:10095000220F331F877F282B25BBAFCF9498959804
:10096000AB98D8988BB780648BBF8BB780688BBFF0
:1009700085B7806885BF7894889585B78F7785BF60
:10098000B7DB182FCFE199CF9498959AAB9865D0A3
:10099000D82E81E0D816C9F1DD2091F1C9E2DCE35F
:1009A000A7DB182F8ACF81E0D816A9F194989598E3
:1009B00085B3877F9E2D990F990F990F892B85BB42
:1009C00088E041DC81110BC084E03DDC811107C06F
:1009D000CAE073CF949A9598AB98D89865CF88DB86
:1009E000182FABDB892B51F4C8E2DCE366CFCE31A4
:1009F00009F4B8CFCF3109F45ECF5FCFC4E15DCF4A
:100A0000CAE0DEE1CDCF90E183CFCAE0D3E0C8CF2A
:100A1000CA30B1F252CF949A9598AB98D1CF1F9229
:100A20000F920FB60F9211248F938BB78F778BBFD6
:100A30008F910F900FBE0F901F9018951F920F92DD
:100A40000FB60F9211248F938BB78F7B8BBF8F9133
:100A50000F900FBE0F901F9018952F923F924F92BC
:100A60005F926F927F928F929F92AF92BF92CF923E
:100A7000DF92EF92FF920F931F93CF93DF93CDB747
:100A8000DEB72A970FB6F894DEBF0FBECDBF00E0E9
:100A900010E13E0125E0620E711C58013FEFA31AE0
:100AA000B30AF8019491953009F48AC028F5923080
:100AB00009F483C008F454C0933009F46BC0943037
:100AC000C1F4DE01119695012F5F3F4FF501A4900F
:100AD000AD925901A615B705B1F7F8013596D49036
:100AE0000A5F1F4F64E0CE01019616DC8C81D81698
:100AF000A1F209DC80E01BC0983009F461C090F4D9
:100B0000963009F438C09730A1F7F501849190E050
:100B1000982F8827F8013296E4910D5F1F4F8E2B96
:100B200057DBBBCF903FA1F19F3F19F781E02A9699
:100B30000FB6F894DEBF0FBECDBFDF91CF911F91EE
:100B40000F91FF90EF90DF90CF90BF90AF909F906C
:100B50008F907F906F905F904F903F902F9008956F
:100B6000913009F0C6CF0E5F1F4FF501849176DBFF
:100B7000811193CFBECF0E5F1F4FF501A490AA2025
:100B800009F48BCF8EE4C2DAAA94A110FBCF85CFF3
:100B900082E0CDCFDE01119695012F5F3F4FF50129
:100BA000A490AD925901A615B705B1F70B5F1F4F81
:100BB00064E0CE010196B0DB70CFA5DB8501D8CF14
:100BC000F5018491F8013296849031962491319602
:100BD000E491912CA12CB12C540199248824B82A99
:100BE0008E2AB501A401522B4F83588769877A87D3
:100BF000F80135962491319644913196849131963D
:100C0000E49150E060E070E0BA0155274427722B70
:100C10004E2B4A015B01982AF8013996C490D12CD9
:100C2000DC2CCC24B801655F7F4F7E836D833196C9
:100C3000E491CE2A9530E1F0ED81FE81CF01A0E074
:100C4000B0E0850174012F81388549855A851C01E2
:100C50002D01C201B101E3DC2F81388549855A8518
:100C6000C201B101A5DD0D811E81080D191D80CFC6
:100C7000CB01A0E0B0E0850174012F813885498562
:100C80005A851C012D01C201B1015ADB2F81388523
:100C900049855A85C201B1012EDCE5CFA1E21A2EA9
:100CA000AA1BBB1BFD010DC0AA1FBB1FEE1FFF1F10
:100CB000A217B307E407F50720F0A21BB30BE40B60
:100CC000F50B661F771F881F991F1A9469F76095A7
:100CD0007095809590959B01AC01BD01CF01089561
:100CE000EE0FFF1F0590F491E02D0994A8E1B0E00C
:100CF00042E050E005C012D0272F11C0DC01CB012B
:100D0000FC01E199FECF06C0FFBBEEBBE09A319635
:100D10000DB20D9241505040B8F70895262FE19939
:100D2000FECF9FBB8EBB2DBB0FB6F894E29AE19A23
:0A0D30000FBE01960895F894FFCF5E
:020D3A00FFFFB9
:01100000F0FF
:00000001FF
