:100000005DC000002CC500001FC5000072C00000CC
:1000100070C000006EC000006CC000006AC000002C
:1000200068C0000066C0000064C0000062C000003C
:1000300060C000005EC000005CC000005AC000004C
:1000400077C0000056C0000054C0000052C000003D
:1000500050C000004EC000004CC000004AC000006C
:1000600048C0000046C00000FF0470047004700423
:10007000700470047004700470047004EA04700466
:1000800070047004700470047004700470047004D0
:10009000DB04700470047004700470047004700455
:1000A00070047004C404FF047004700470047004CD
:1000B0007004700470047004AE049E0411241FBE0A
:1000C000CFEFD8E0DEBFCDBF11E0A0E0B1E0E6E5C4
:1000D000FDE002C005900D92A230B107D9F721E0F2
:1000E000A2E0B1E001C01D92A730B207E1F7C8D38A
:1000F00030C686CF85E085BD10920301EEE6F0E0C4
:10010000808181608083089580910301089590919A
:100110000301981B892F089586B5089596B5981BFD
:10012000892F089526B596B5921B9817E0F3089588
:100130001F920F920FB60F9211248F93809103019B
:100140008F5F809303018F910F900FBE0F901F90D0
:100150001895EF92FF920F931F93CF93DF93C0E018
:10016000D0E0EE24EA94FE2CCE01CDD58C01CE0158
:1001700002962496C8D5809590958017910759F0DE
:10018000CC30D10589F7C701DF91CF911F910F9135
:10019000FF90EF9008958E159F0590F77C01F0CFAA
:1001A000CF92DF92EF92FF920F931F93CF93DF9343
:1001B0007C016C01C094D094C0E0D0E08E010E5F51
:1001C0001F4FB701CE01A4D52496B601C801A0D512
:1001D000CC30D10599F7DF91CF911F910F91FF900E
:1001E000EF90DF90CF900895CF93DF93D82FC92F52
:1001F000B0DF8F3F2FEF920749F0009719F4DF919E
:10020000CF9108950197DF91CF91CACF8D2F9C2F69
:10021000F4CF29B190910601209529278091010101
:100220008223809580930101909100019223982769
:10023000909300018223892390910601982790933F
:10024000060120910601909105018223892B80935C
:1002500005018091060181E3809302010895F894DD
:1002600090910501892390910501982790930501AC
:1002700078940895BF92CF92DF92EF92FF920F93FE
:100280001F93CF93DF9300D000D0CDB7DEB794B1EA
:100290009C6294B92A982D9882FBBB24B0F8837095
:1002A0008065E82E80E2F82E8E010B5F1F4F9CEADE
:1002B000C92E23E5D22E87E235DF2A9A87E232DF84
:1002C0002A9883EC2FDFBDBCECBCC982DA821B828A
:1002D0001C82FE0131969CEA9EBD0DB407FEFDCF47
:1002E0009EB59193E017F10711F09081F5CF8B81C6
:1002F000833599F01CBCFA94F110DDCF8F2D0F904F
:100300000F900F900F90DF91CF911F910F91FF9061
:10031000EF90DF90CF90BF900895FF24F394EECF3D
:1003200084B1837D84B985B1837D85B91CBC81E0AE
:100330000895662391F0FC016150262F30E02F5F75
:100340003F4F280F391F80818EBD0DB407FEFDCFB2
:100350008EB58193E217F307B1F708952F923F927C
:100360004F925F926F927F928F929F92AF92BF92C5
:10037000CF92DF92EF92FF920F931F93CF93DF9371
:10038000CDB7DEB760970FB6F894DEBF0FBECDBF16
:1003900049015A0127013801EF28E02AE12A09F42E
:1003A0008BC0960140E050E02D873E874F87588BE9
:1003B0001B01DD24DA94AE014B5F5F4F7A01EDE45F
:1003C000CE2ED501C40171E1B695A7959795879575
:1003D0007A95D1F74D2D50E060E070E084179507D5
:1003E000A607B70799F0D82EC9821A828B831C8280
:1003F000FE0131968DE48EBD0DB407FEFDCF8EB5A6
:100400008193EE15FF0511F08081F5CF882D817065
:10041000880F880F880F80648983A501940199E073
:1004200056954795379527959A95D1F72D833E8315
:100430004F8358872A83A501940156954795379590
:10044000279529873A874B875C872B83F101949105
:100450009C838E010F5F1F4FF8018EBD0DB407FE08
:10046000FDCF8EB58193EE15FF0511F08081F5CF9C
:10047000FFEF8F1A9F0AAF0ABF0AC501B4012D858D
:100480003E854F85588917D4672B682B692B69F1F6
:1004900021E0421651046104710439F181E0481AE7
:1004A0005108610871089FEF291A390A4114510453
:1004B0006104710409F085CF60960FB6F894DEBF31
:1004C0000FBECDBFDF91CF911F910F91FF90EF90A5
:1004D000DF90CF90BF90AF909F908F907F906F9064
:1004E0005F904F903F902F9008953CE439834D8169
:1004F0004A8359855B831C828CE4F8018EBD0DB460
:1005000007FEFDCF8EB58193EE15FF0511F08081BA
:10051000F5CF87E207DEC2CF4F925F926F927F9254
:100520008F929F92AF92BF92EF92FF920F931F9381
:10053000CF93DF9300D000D0CDB7DEB749015A0189
:10054000E114F1040105110509F466C0FB016FEF28
:10055000AE014B5F5F4F2DE42401350171E17694CC
:100560006794579447947A95D1F7862F90E0A0E04E
:10057000B0E0481659066A067B0699F0642D298377
:100580001A824B821C82DE0111968DE48EBD0DB461
:1005900007FEFDCF8EB58D93A417B50711F08C9192
:1005A000F5CF882D8170880F880F880F806289832E
:1005B0002401350199E076946794579447949A956D
:1005C000D1F74A8224013501769467945794479471
:1005D0004B821C82DE0111968EBD0DB407FEFDCF4D
:1005E0008EB58D93A417B50711F08C91F5CF84913A
:1005F0003C81831325C08FEF881A980AA80AB80A8D
:1006000081E0E81AF108010911093196E114F104B9
:100610000105110509F0A0CF81E00F900F900F9018
:100620000F90DF91CF911F910F91FF90EF90BF90AE
:10063000AF909F908F907F906F905F904F900895B4
:1006400080E0EBCF2F923F924F925F926F927F921A
:100650008F929F92AF92BF92CF92DF92EF92FF92D2
:100660000F931F93CF93DF93CDB7DEB761970FB68C
:10067000F894DEBF0FBECDBF47015801DD86CC86A2
:10068000EF28E02AE12A09F468C07E836D836901BE
:100690007A018FEFC81AD80AE80AF80A29013A0144
:1006A000DE0115961D01AC85BD85CD01A0E0B0E051
:1006B0008E879F87A88BB98BBB27A72D962D852D5D
:1006C0008F839887A987BA878A834B864B82ED816F
:1006D000FE8184918C838C859D85029708F46EC081
:1006E000A1ECA9838E010F5F1F4FF80181EC8EBD35
:1006F0000DB407FEFDCF8EB58193E215F30511F021
:100700008081F5CFC701B6012E853F85488959897B
:10071000D2D2672B682B692BC9F1B1E08B169104FB
:10072000A104B10499F181E0881A9108A108B108E7
:100730009FEF491A590A690A790AAD81BE8111965B
:10074000BE83AD83BFEFCB1ADB0AEB0AFB0A811431
:100750009104A104B10409F0AFCF61960FB6F894EB
:10076000DEBF0FBECDBFDF91CF911F910F91FF90E4
:10077000EF90DF90CF90BF90AF909F908F907F9041
:100780006F905F904F903F902F900895E2ECE98337
:10079000FF81FA838B858C7F8B831C8282ECF8012E
:1007A0008EBD0DB407FEFDCF8EB58193E215F30526
:1007B00011F08081F5CF8EE4B5DCB5CF90EC998354
:1007C000FE01319680EC8EBD0DB407FEFDCF8EB5D7
:1007D0008193E215F30579F38081F5CF8F929F9293
:1007E000AF92BF92EF92FF920F931F93CF93DF933D
:1007F00000D000D0CDB7DEB749015A01E114F104B1
:100800000105110559F1FB01AE014B5F5F4F20EA75
:1008100029839A828B821C82DE01119680EA8EBD2A
:100820000DB407FEFDCF8EB58D93A417B50711F05B
:100830008C91F5CF84919C81891320C08FEF881A09
:10084000980AA80AB80A81E0E81AF1080109110912
:100850003196E114F10401051105D1F681E00F9004
:100860000F900F900F90DF91CF911F910F91FF90FC
:10087000EF90BF90AF909F908F90089580E0EFCF62
:1008800092E080E80FB6F894809361009093610045
:100890000FBE8FE087B98CE08BB92CDC83B7817FEA
:1008A000846083BF39DCF82E2FDC082F2DDC182F55
:1008B0007894C0E0E12CD0E0DD24D394CC24C39420
:1008C000802F25DC8930F8F48F2D28DC8F3410F54B
:1008D000DD2339F1409A4C2F50E04A32510540F166
:1008E000C43109F46BC008F097C0C111A6C031DC57
:1008F000CAE0F894812F0BDC853FF0F47894802FC8
:1009000006DC893008F300DC082FEC248F2D06DC90
:100910008F34F0F201DCF82E7CDCDD2311F0D150B5
:10092000C9F64098D0E04C2F50E04A325105C0F64D
:10093000FA01EC5CFF4FE1C1CEE1C2CF88B1877F05
:10094000EE2009F475C090E0892B88B9429888B1EF
:100950008D7F9E2D990F892B88B9CBCF48B12E2D35
:1009600030E0C901880F991F880F991F880F991FC0
:10097000942F977F892B88B9429888B1220F331F13
:100980008D7F282B28B9B5CF43984298419840983D
:10099000E89AE99A83B7816083BF85B7806685BF8F
:1009A0008F7D85BF7894889583B78E7F83BFACDBBE
:1009B000182FCFE19ECF4398429A41985BD0D82E12
:1009C00081E0D816B9F1DD2081F1C9E2DCE39CDBDE
:1009D000182F8FCF81E0D81699F14398429888B1AB
:1009E0008D7F9E2D990F892B88B988E038DC811185
:1009F0000BC084E034DC811107C0CAE07ACF439A8F
:100A00004298419840986CCF7FDB182FA2DB892B4E
:100A100051F4C8E2DCE36DCFCE3109F4B9CFCF3168
:100A200009F465CF66CFC4E164CFCAE0DEE1CFCF81
:100A300098E08ACFCAE0D3E0CACFCA30B1F259CF2A
:100A4000439A42984198D1CF1F920F920FB60F92BE
:100A50001124E9980F900FBE0F901F9018951F92C8
:100A60000F920FB60F921124E8980F900FBE0F90BF
:100A70001F9018952F923F924F925F926F927F92A4
:100A80008F929F92AF92BF92CF92DF92EF92FF929E
:100A90000F931F93CF93DF93CDB7DEB72A970FB68F
:100AA000F894DEBF0FBECDBF00E010E13E0125E0AF
:100AB000620E711C58013FEFA31AB30AF80194911A
:100AC000953009F48AC028F5923009F483C008F4FF
:100AD00054C0933009F46BC09430C1F4DE01119618
:100AE00095012F5F3F4FF501A490AD925901A615D6
:100AF000B705B1F7F8013596D4900A5F1F4F64E04F
:100B0000CE01019616DC8C81D816A1F209DC80E0BA
:100B10001BC0983009F461C090F4963009F438C0D5
:100B20009730A1F7F501849190E0982F8827F8017C
:100B30003296E4910D5F1F4F8E2B56DBBBCF903F5B
:100B4000A1F19F3F19F781E02A960FB6F894DEBF16
:100B50000FBECDBFDF91CF911F910F91FF90EF900E
:100B6000DF90CF90BF90AF909F908F907F906F90CD
:100B70005F904F903F902F900895913009F0C6CF2D
:100B80000E5F1F4FF501849175DB811193CFBECFAE
:100B90000E5F1F4FF501A490AA2009F48BCF8EE4BD
:100BA000C1DAAA94A110FBCF85CF82E0CDCFDE01C0
:100BB000119695012F5F3F4FF501A490AD92590119
:100BC000A615B705B1F70B5F1F4F64E0CE01019684
:100BD000B0DB70CFA5DB8501D8CFF5018491F8019A
:100BE00032968490319624913196E491912CA12CE7
:100BF000B12C540199248824B82A8E2AB501A40165
:100C0000522B4F83588769877A87F801359624914C
:100C100031964491319684913196E49150E060E0B0
:100C200070E0BA0155274427722B4E2B4A015B0115
:100C3000982AF8013996C490D12CDC2CCC24B80128
:100C4000655F7F4F7E836D833196E491CE2A953028
:100C5000E1F0ED81FE81CF01A0E0B0E085017401FB
:100C60002F81388549855A851C012D01C201B101AA
:100C7000E9DC2F81388549855A85C201B101AEDD95
:100C80000D811E81080D191D80CFCB01A0E0B0E0C1
:100C9000850174012F81388549855A851C012D01F4
:100CA000C201B1015BDB2F81388549855A85C201BC
:100CB000B10132DCE5CFA1E21A2EAA1BBB1BFD015C
:100CC0000DC0AA1FBB1FEE1FFF1FA217B307E4072B
:100CD000F50720F0A21BB30BE40BF50B661F771F83
:100CE000881F991F1A9469F7609570958095909563
:100CF0009B01AC01BD01CF010895EE0FFF1F0590D0
:100D0000F491E02D0994A8E1B0E042E050E005C084
:100D100012D0272F11C0DC01CB01FC01F999FECFC5
:100D200006C0F2BDE1BDF89A319600B40D92415073
:100D30005040B8F70895262FF999FECF1FBA92BDFB
:100D400081BD20BD0FB6F894FA9AF99A0FBE0196AC
:060D50000895F894FFCFA6
:020D5600FFFF9D
:01100000F0FF
:00000001FF
