:100000006FC000007CC500006FC5000086C0000006
:1000100084C0000082C0000080C000007EC00000DC
:100020007CC000007AC0000078C0000076C00000EC
:1000300074C0000072C0000070C000006EC00000FC
:100040006CC000006AC0000087C0000066C00000ED
:1000500064C0000062C0000060C000005EC000001C
:100060005CC000005AC0000058C0000056C000002C
:1000700054C0000052C0000050C000004EC000003C
:100080004CC000004AC0000048C000004605C00443
:10009000C004C004C004C004C004C004C004C00440
:1000A0002F05C004C004C004C004C004C004C004C0
:1000B000C004C0041F05C004C004C004C004C004C0
:1000C000C004C004C004C00408054605C004C00440
:1000D000C004C004C004C004C004C004FD04EE0495
:1000E00011241FBECFEFD0E4DEBFCDBF11E0A0E0F2
:1000F000B1E0E2ECFEE000E00BBF02C007900D9221
:10010000A230B107D9F721E0A2E0B1E001C01D9211
:10011000A730B207E1F709D4D2C672CF85E085BD1A
:1001200010920301EEE6F0E0808181608083089503
:1001300080910301089590910301981B892F0895E0
:1001400086B5089596B5981B892F089526B596B55E
:10015000921B9817E0F308951F920F920FB60F921B
:1001600011248F93809103018F5F809303018F91FE
:100170000F900FBE0F901F901895EF92FF920F9364
:100180001F93CF93DF93C0E0D0E0EE24EA94FE2CDF
:10019000CE016FD68C01CE01029624966AD6809548
:1001A00090958017910759F0CC30D10589F7C70198
:1001B000DF91CF911F910F91FF90EF9008958E15D1
:1001C0009F0590F77C01F0CFCF92DF92EF92FF92E4
:1001D0000F931F93CF93DF937C016C01C094D09455
:1001E000C0E0D0E08E010E5F1F4FB701CE0146D6B2
:1001F0002496B601C80142D6CC30D10599F7DF91DB
:10020000CF911F910F91FF90EF90DF90CF900895C5
:10021000CF93DF93D82FC92FB0DF8F3F2FEF9207F7
:1002200049F0009719F4DF91CF9108950197DF917C
:10023000CF91CACF8D2F9C2FF4CF29B19091060179
:1002400020952927809101018223809580930101C7
:100250009091000192239827909300018223892393
:1002600090910601982790930601209106019091A4
:1002700005018223892B809305018091060181E38A
:10028000809302010895F89490910501892390913B
:10029000050198279093050178940895BF92CF9215
:1002A000DF92EF92FF920F931F93CF93DF9300D0D3
:1002B00000D0CDB7DEB794B1906B94B92C982F983D
:1002C00082FBBB24B0F883708065E82E80E2F82EB4
:1002D0008E010B5F1F4F9CEAC92E23E5D22E87E2C9
:1002E00035DF2C9A87E232DF2C9883EC2FDFBDBC00
:1002F000ECBCC982DA821B821C82FE0131969CEA28
:100300009EBD0DB407FEFDCF9EB59193E017F1079A
:1003100011F09081F5CF8B81833599F01CBCFA9454
:10032000F110DDCF8F2D0F900F900F900F90DF9178
:10033000CF911F910F91FF90EF90DF90CF90BF90E2
:100340000895FF24F394EECF84B18F7484B985B1FE
:100350008F7485B91CBC81E00895662391F0FC017F
:100360006150262F30E02F5F3F4F280F391F8081CB
:100370008EBD0DB407FEFDCF8EB58193E217F30756
:10038000B1F708952F923F924F925F926F927F92B2
:100390008F929F92AF92BF92CF92DF92EF92FF9295
:1003A0000F931F93CF93DF93CDB7DEB761970FB64F
:1003B000F894DEBF0FBECDBF49015A0127013801B5
:1003C000EF28E02AE12A09F4A6C0860120E030E007
:1003D0000E871F87288B398B1FEF1D879E012B5F90
:1003E0003F4F1901AB01BC01D501C401F1E1B69544
:1003F000A79597958795FA95D1F7ED850E2F10E083
:1004000020E030E080179107A207B307A1F08D87A5
:100410000DE409831A828B831C82FE0131968DE4E0
:100420008EBD0DB407FEFDCF8EB58193E215F305A9
:1004300011F08081F5CF882D8170880F880F880F8B
:10044000806489839501840199E0369527951795F5
:1004500007959A95D1F70D831E832F8338870A83DA
:1004600095018401369527951795079509871A8771
:100470002B873C870B836A017B011FEFC11AD10ACE
:10048000E10AF10A6BBFFA0147914C838E010F5FBD
:100490001F4FF8018EBD0DB407FEFDCF8EB58193C1
:1004A000E215F30511F08081F5CF2FEF821A920A41
:1004B000A20AB20AC501B4012E853F85488959892F
:1004C000ADD4672B682B692B79F031E043165104CA
:1004D0006104710449F091E0491A510861087108FA
:1004E000D1F0B701A60180CF4CE449835D815A83E6
:1004F00089858B831C828CE4F8018EBD0DB407FEC8
:10050000FDCF8EB58193E215F30511F08081F5CF13
:1005100087E21CDEE0CF61960FB6F894DEBF0FBE17
:10052000CDBFDF91CF911F910F91FF90EF90DF90A2
:10053000CF90BF90AF909F908F907F906F905F9083
:100540004F903F902F9008954F925F926F927F92BD
:100550008F929F92AF92BF92CF92DF92EF92FF92D3
:100560000F931F93CF93DF93CDB7DEB760970FB68E
:10057000F894DEBF0FBECDBF2B013C0149015A01EB
:10058000ED86FE860F87188BEF28E02AE12A09F412
:100590007CC06FEFAE014B5F5F4F7DE4850174015E
:1005A00021E116950795F794E7942A95D1F7E98606
:1005B000FA860B871C87062F10E020E030E0898543
:1005C0009A85AB85BC8580179107A207B30799F080
:1005D000698579831A828B831C82FE0131968DE4B2
:1005E0008EBD0DB407FEFDCF8EB58193E417F507E0
:1005F00011F08081F5CF882D8170880F880F880FCA
:10060000382F306239837501640189E0F694E794EC
:10061000D794C7948A95D1F7CA8275016401F6947C
:10062000E794D794C794CB821C82FE0131963EBDDD
:100630000DB407FEFDCF8EB58193E417F50711F0D9
:100640003081F5CFD301C2010196A11DB11D6BBE52
:10065000F20147903C81431230C00FEF801A900A9C
:10066000A00AB00A0D851E852F8538890150110911
:10067000210931090D871E872F87388B012B022B0B
:10068000032B19F02C013D0189CF81E060960FB654
:10069000F894DEBF0FBECDBFDF91CF911F910F91B8
:1006A000FF90EF90DF90CF90BF90AF909F908F9092
:1006B0007F906F905F904F90089580E0E7CF2F92EA
:1006C0003F924F925F926F927F928F929F92AF92E2
:1006D000BF92CF92DF92EF92FF920F931F93CF932F
:1006E000DF93CDB7DEB763970FB6F894DEBF0FBECA
:1006F000CDBF17012801DF86CE86EF28E02AE12A48
:1007000009F472C069017A01EFEFCE1ADE0AEE0A2F
:10071000FE0A49015A019E012B5F3F4F39014E8568
:100720005F859A0140E050E0288B398B4A8B5B8BC8
:10073000DC01CB0155274B2D3A2D292D2D833E83EE
:100740004F8358872A838D868B829C01AD012F5F52
:100750003F4F4F4F5F4F29873A874B875C87ABBF2F
:10076000FC0167916C834E855F854230510508F42A
:100770006CC081EC89838E010F5F1F4FF8018EBD25
:100780000DB407FEFDCF8EB58193E615F70511F088
:100790008081F5CFC701B601288939894A895B89EB
:1007A0003DD3672B682B692BC1F191E029163104E9
:1007B0004104510491F131E0231A310841085108F4
:1007C0004FEF841A940AA40AB40A5FEFC51AD50A37
:1007D000E50AF50A89859A85AB85BC852114310423
:1007E0004104510409F0A6CF63960FB6F894DEBF1A
:1007F0000FBECDBFDF91CF911F910F91FF90EF9072
:10080000DF90CF90BF90AF909F908F907F906F9030
:100810005F904F903F902F900895E2ECE9832D81F7
:100820002A838D858C7F8B831C8282ECF8018EBDA0
:100830000DB407FEFDCF8EB58193E615F70511F0D7
:100840008081F5CF8EE482DCB6CF50EC5983FE0177
:10085000319680EC8EBD0DB407FEFDCF8EB5819331
:10086000E615F70579F38081F5CF4F925F926F928D
:100870007F928F929F92AF92BF92EF92FF920F93CF
:100880001F93CF93DF9300D000D0CDB7DEB74B01DD
:100890005C0129013A01E114F1040105110579F126
:1008A000AE014B5F5F4F30EA39835A824B821C8224
:1008B000FE01319680EA8EBD0DB407FEFDCF8EB5E8
:1008C0008193E417F50711F08081F5CFD501C401BC
:1008D0000196A11DB11DABBEF40187902C8182123F
:1008E00022C02FEF421A520A620A720A21E0E21A6B
:1008F000F1080109110919F04C015D01D5CF81E022
:100900000F900F900F900F90DF91CF911F910F914B
:10091000FF90EF90BF90AF909F908F907F906F90DF
:100920005F904F90089580E0EBCF80E38AB988E034
:1009300087B981E081B98CE08BB9F0DB83B7817F27
:10094000846083BFFDDBF82EF3DB082FF1DB182F6B
:100950007894C0E0E12CD0E0DD24D394CC24C3947F
:10096000802FE9DB8930F8F48F2DECDB8F3410F524
:10097000DD2339F1109A4C2F50E04A32510540F1F5
:10098000C43109F45FC008F08EC0C111A6C0F5DB08
:10099000CAE0F894812FCFDB853FF0F47894802F64
:1009A000CADB893008F3C4DB082FEC248F2DCADBA7
:1009B0008F34F0F2C5DBF82E40DCDD2311F0D1508E
:1009C000C9F61098D0E04C2F50E04A325105C0F6DD
:1009D000FA01EA5BFF4F44C2CEE1C2CF8BB18F7EFA
:1009E000EE2009F46EC080618BB95D9A88B1982FB2
:1009F000977F80E0892B88B9CCCF5C9A5D9A98B1BB
:100A0000977FEE2009F45BC080E0982B98B9C1CFA6
:100A10005C9A5D9A439A1098E89AE99A83B7816044
:100A200083BF85B7806685BF8F7D85BF78948895A5
:100A300093B79E7F93BF7CDB182FCFE1AACF5C9A40
:100A40005D9A439867D0D82E81E0D81609F440C04B
:100A5000DD2091F1C9E2DCE36BDB182F9ACF81E056
:100A6000D81609F43DC05C9A5D9A88B1877FEE2064
:100A700091F190E0892B88B988E005DC81110BC0E9
:100A800084E001DC811107C0CAE083CF5C985D9AE5
:100A9000439A109875CF4CDB182F6FDB892B51F4DC
:100AA000C8E2D4E676CFCE3109F4B6CFCF3109F41F
:100AB0006ECF6FCFC4E16DCFCAE0D8E2CDCF88E072
:100AC000A4CF8BB95D9A88B1982F977F88E092CF99
:100AD000CAE0D3E0C1CF98E0CDCFCA3069F259CF98
:100AE0005C985D9A439AC8CF1F920F920FB60F92EF
:100AF0001124E9980F900FBE0F901F9018951F9228
:100B00000F920FB60F921124E8980F900FBE0F901E
:100B10001F9018952F923F924F925F926F927F9203
:100B20008F929F92AF92BF92CF92DF92EF92FF92FD
:100B30000F931F93CF93DF93CDB7DEB728970FB6F0
:100B4000F894DEBF0FBECDBF00E010E120E06801E9
:100B500079013E0115E0610E711C460157012FEF2E
:100B6000821A920AA20AB20AEBBEF6018791853078
:100B700009F4B6C008F033C0823009F4ADC008F4FF
:100B80006EC0833009F48DC0843031F5DE011196DA
:100B9000B501A4014F5F5F4F6F4F7F4FABBEF401B4
:100BA00087908D924A015B01A615B70589F7D70199
:100BB000C6010596A11DB11DABBFFC01B790A6E013
:100BC000CA0ED11CE11CF11C64E0CE010196C5DB0C
:100BD0008C81B81609F4C1CFB7DB80E027C088301C
:100BE00009F47EC0E8F4863009F448C08730A1F7E4
:100BF000ABBEF4018790882D90E0982F8827B7012D
:100C0000A6014E5F5F4F6F4F7F4F6BBFFA01479159
:100C1000B3E0CB0ED11CE11CF11C842BF9DA9DCF83
:100C2000803F09F43CC08F3FB9F681E028960FB6AB
:100C3000F894DEBF0FBECDBFDF91CF911F910F9112
:100C4000FF90EF90DF90CF90BF90AF909F908F90EC
:100C50007F906F905F904F903F902F9008958130DC
:100C600009F0BACF32E0C30ED11CE11CF11CABBEBF
:100C7000F401879113DB811170CFAECF82E0C80EF3
:100C8000D11CE11CF11CABBEF4018790882009F453
:100C900064CF8EE45BDA8A948110FBCF5ECF82E072
:100CA000C5CFDE011196B501A4014F5F5F4F6F4FB5
:100CB0007F4FABBEF40187908D924A015B01A61570
:100CC000B70589F795E0C90ED11CE11CF11C64E061
:100CD000CE01019642DB41CF37DB75016401CBCFFA
:100CE000ABBEF4018790B701A6014E5F5F4F6F4F17
:100CF0007F4F6BBFFA012790B701A6014D5F5F4F91
:100D00006F4F7F4F6BBFFA019791B701A6014C5F00
:100D10005F4F6F4F7F4F6BBFFA014791022D10E07D
:100D200020E030E0980111270027382948015901B7
:100D3000842A992A8D829E82AF82B886B701A60145
:100D40004B5F5F4F6F4F7F4F6BBFFA01379146018B
:100D5000570106E0800E911CA11CB11CABBEF40132
:100D60008790B701A601495F5F4F6F4F7F4F6BBF01
:100D7000FA019791B701A601485F5F4F6F4F7F4F10
:100D80006BBFFA012791912CA12CB12C540199240D
:100D90008824B32A822A992AB701A601475F5F4FA8
:100DA0006F4F7F4F6BBFFA01479150E0542F44279C
:100DB000160127011BE0210E311C411C511C2AE0A9
:100DC000C20ED11CE11CF11CEBBEF601C790DA018A
:100DD000AC296D01850174012D813E814F815885BB
:100DE000853089F0C201B1016ADC2D813E814F81DD
:100DF0005885C201B10139DD75016401C20CD31CF3
:100E0000E41CF51C38CFC201B101BCDA2D813E8152
:100E10004F815885C201B10197DBEECFA1E21A2EB6
:100E2000AA1BBB1BFD010DC0AA1FBB1FEE1FFF1F8E
:100E3000A217B307E407F50720F0A21BB30BE40BDE
:100E4000F50B661F771F881F991F1A9469F7609525
:100E50007095809590959B01AC01BD01CF010895DF
:100E6000EE0FFF1F0024001C0BBE0790F691E02D33
:100E70000994A8E1B0E042E050E005C012D0272F6D
:100E800011C0DC01CB01FC01F999FECF06C0F2BD17
:100E9000E1BDF89A319600B40D9241505040B8F738
:100EA0000895262FF999FECF1FBA92BD81BD20BDAE
:100EB0000FB6F894FA9AF99A0FBE01960895F8942D
:020EC000FFCF62
:020EC200FFFF30
:01100000F0FF
:00000001FF
